S01900003278325F4B65795061645F53616D706C652E73726563D1
S11300000C942A000C9434000C9434000C943400A6
S11300100C9434000C9434000C9434000C9434008C
S11300200C9434000C9434000C9434000C9434007C
S11300300C9434000C9434000C9434000C9434006C
S11300400C9434000C9434000C9434000C9434005C
S11300500C94340011241FBECFE5D8E0DEBFCDBF21
S11300600E9436000C9460000C9400008FEF87BB54
S11300708CE084BB84B38C7F84BB84B38C6084BBEE
S1130080AA98AB9A83B38370823011F4C09A03C0E8
S1130090813009F4C29A2FEF81EE94E02150804020
S11300A09040E1F700C00000AB98AA9A83B3837034
S11300B0823011F4C19AE4CF813011F7C39AE0CFB2
S10700C0F894FFCFDE
S9030000FC
